{
  "_format": "hh-sol-artifact-1",
  "contractName": "MyEpicNFT",
  "sourceName": "contracts/MyEpicNFT.sol",
  "abi": [
    {
      "inputs": [],
      "stateMutability": "nonpayable",
      "type": "constructor"
    },
    {
      "anonymous": false,
      "inputs": [
        {
          "indexed": true,
          "internalType": "address",
          "name": "owner",
          "type": "address"
        },
        {
          "indexed": true,
          "internalType": "address",
          "name": "approved",
          "type": "address"
        },
        {
          "indexed": true,
          "internalType": "uint256",
          "name": "tokenId",
          "type": "uint256"
        }
      ],
      "name": "Approval",
      "type": "event"
    },
    {
      "anonymous": false,
      "inputs": [
        {
          "indexed": true,
          "internalType": "address",
          "name": "owner",
          "type": "address"
        },
        {
          "indexed": true,
          "internalType": "address",
          "name": "operator",
          "type": "address"
        },
        {
          "indexed": false,
          "internalType": "bool",
          "name": "approved",
          "type": "bool"
        }
      ],
      "name": "ApprovalForAll",
      "type": "event"
    },
    {
      "anonymous": false,
      "inputs": [
        {
          "indexed": false,
          "internalType": "address",
          "name": "sender",
          "type": "address"
        },
        {
          "indexed": false,
          "internalType": "uint256",
          "name": "tokenId",
          "type": "uint256"
        }
      ],
      "name": "NewEpicNFTMinted",
      "type": "event"
    },
    {
      "anonymous": false,
      "inputs": [
        {
          "indexed": true,
          "internalType": "address",
          "name": "from",
          "type": "address"
        },
        {
          "indexed": true,
          "internalType": "address",
          "name": "to",
          "type": "address"
        },
        {
          "indexed": true,
          "internalType": "uint256",
          "name": "tokenId",
          "type": "uint256"
        }
      ],
      "name": "Transfer",
      "type": "event"
    },
    {
      "inputs": [
        {
          "internalType": "address",
          "name": "to",
          "type": "address"
        },
        {
          "internalType": "uint256",
          "name": "tokenId",
          "type": "uint256"
        }
      ],
      "name": "approve",
      "outputs": [],
      "stateMutability": "nonpayable",
      "type": "function"
    },
    {
      "inputs": [
        {
          "internalType": "address",
          "name": "owner",
          "type": "address"
        }
      ],
      "name": "balanceOf",
      "outputs": [
        {
          "internalType": "uint256",
          "name": "",
          "type": "uint256"
        }
      ],
      "stateMutability": "view",
      "type": "function"
    },
    {
      "inputs": [
        {
          "internalType": "uint256",
          "name": "tokenId",
          "type": "uint256"
        }
      ],
      "name": "getApproved",
      "outputs": [
        {
          "internalType": "address",
          "name": "",
          "type": "address"
        }
      ],
      "stateMutability": "view",
      "type": "function"
    },
    {
      "inputs": [
        {
          "internalType": "address",
          "name": "owner",
          "type": "address"
        },
        {
          "internalType": "address",
          "name": "operator",
          "type": "address"
        }
      ],
      "name": "isApprovedForAll",
      "outputs": [
        {
          "internalType": "bool",
          "name": "",
          "type": "bool"
        }
      ],
      "stateMutability": "view",
      "type": "function"
    },
    {
      "inputs": [],
      "name": "makeAnEpicNFT",
      "outputs": [],
      "stateMutability": "nonpayable",
      "type": "function"
    },
    {
      "inputs": [],
      "name": "name",
      "outputs": [
        {
          "internalType": "string",
          "name": "",
          "type": "string"
        }
      ],
      "stateMutability": "view",
      "type": "function"
    },
    {
      "inputs": [
        {
          "internalType": "uint256",
          "name": "tokenId",
          "type": "uint256"
        }
      ],
      "name": "ownerOf",
      "outputs": [
        {
          "internalType": "address",
          "name": "",
          "type": "address"
        }
      ],
      "stateMutability": "view",
      "type": "function"
    },
    {
      "inputs": [
        {
          "internalType": "string[]",
          "name": "stringArray",
          "type": "string[]"
        },
        {
          "internalType": "uint256",
          "name": "tokenId",
          "type": "uint256"
        }
      ],
      "name": "pickRandomWord",
      "outputs": [
        {
          "internalType": "string",
          "name": "",
          "type": "string"
        }
      ],
      "stateMutability": "view",
      "type": "function"
    },
    {
      "inputs": [
        {
          "internalType": "address",
          "name": "from",
          "type": "address"
        },
        {
          "internalType": "address",
          "name": "to",
          "type": "address"
        },
        {
          "internalType": "uint256",
          "name": "tokenId",
          "type": "uint256"
        }
      ],
      "name": "safeTransferFrom",
      "outputs": [],
      "stateMutability": "nonpayable",
      "type": "function"
    },
    {
      "inputs": [
        {
          "internalType": "address",
          "name": "from",
          "type": "address"
        },
        {
          "internalType": "address",
          "name": "to",
          "type": "address"
        },
        {
          "internalType": "uint256",
          "name": "tokenId",
          "type": "uint256"
        },
        {
          "internalType": "bytes",
          "name": "_data",
          "type": "bytes"
        }
      ],
      "name": "safeTransferFrom",
      "outputs": [],
      "stateMutability": "nonpayable",
      "type": "function"
    },
    {
      "inputs": [
        {
          "internalType": "address",
          "name": "operator",
          "type": "address"
        },
        {
          "internalType": "bool",
          "name": "approved",
          "type": "bool"
        }
      ],
      "name": "setApprovalForAll",
      "outputs": [],
      "stateMutability": "nonpayable",
      "type": "function"
    },
    {
      "inputs": [
        {
          "internalType": "bytes4",
          "name": "interfaceId",
          "type": "bytes4"
        }
      ],
      "name": "supportsInterface",
      "outputs": [
        {
          "internalType": "bool",
          "name": "",
          "type": "bool"
        }
      ],
      "stateMutability": "view",
      "type": "function"
    },
    {
      "inputs": [],
      "name": "symbol",
      "outputs": [
        {
          "internalType": "string",
          "name": "",
          "type": "string"
        }
      ],
      "stateMutability": "view",
      "type": "function"
    },
    {
      "inputs": [
        {
          "internalType": "uint256",
          "name": "tokenId",
          "type": "uint256"
        }
      ],
      "name": "tokenURI",
      "outputs": [
        {
          "internalType": "string",
          "name": "",
          "type": "string"
        }
      ],
      "stateMutability": "view",
      "type": "function"
    },
    {
      "inputs": [
        {
          "internalType": "address",
          "name": "from",
          "type": "address"
        },
        {
          "internalType": "address",
          "name": "to",
          "type": "address"
        },
        {
          "internalType": "uint256",
          "name": "tokenId",
          "type": "uint256"
        }
      ],
      "name": "transferFrom",
      "outputs": [],
      "stateMutability": "nonpayable",
      "type": "function"
    }
  ],
  "bytecode": "0x6080604052604051806101600160405280610134815260200162004c50610134913960089080519060200190620000389291906200102f565b506040518061028001604052806040518060400160405280600681526020017f677265617379000000000000000000000000000000000000000000000000000081525081526020016040518060400160405280600981526020017f646566656374697665000000000000000000000000000000000000000000000081525081526020016040518060400160405280600681526020017f737475726479000000000000000000000000000000000000000000000000000081525081526020016040518060400160405280600581526020017f7368696e7900000000000000000000000000000000000000000000000000000081525081526020016040518060400160405280600981526020017f766f6963656c657373000000000000000000000000000000000000000000000081525081526020016040518060400160405280600681526020017f736361726564000000000000000000000000000000000000000000000000000081525081526020016040518060400160405280600881526020017f77656c6c2d6f666600000000000000000000000000000000000000000000000081525081526020016040518060400160405280600681526020017f666565626c65000000000000000000000000000000000000000000000000000081525081526020016040518060400160405280600981526020017f67726f746573717565000000000000000000000000000000000000000000000081525081526020016040518060400160405280600581526020017f796f756e6700000000000000000000000000000000000000000000000000000081525081526020016040518060400160405280600581526020017f62726f776e00000000000000000000000000000000000000000000000000000081525081526020016040518060400160405280600981526020017f676c616d6f726f7573000000000000000000000000000000000000000000000081525081526020016040518060400160405280600581526020017f616c6f6f6600000000000000000000000000000000000000000000000000000081525081526020016040518060400160405280600981526020017f696d6d656469617465000000000000000000000000000000000000000000000081525081526020016040518060400160405280600581526020017f6472756e6b00000000000000000000000000000000000000000000000000000081525081526020016040518060400160405280600b81526020017f65787472612d6c6172676500000000000000000000000000000000000000000081525081526020016040518060400160405280600981526020017f6775696c746c657373000000000000000000000000000000000000000000000081525081526020016040518060400160405280600881526020017f717569786f74696300000000000000000000000000000000000000000000000081525081526020016040518060400160405280600981526020017f616c636f686f6c6963000000000000000000000000000000000000000000000081525081526020016040518060400160405280600a81526020017f63686976616c726f7573000000000000000000000000000000000000000000008152508152506009906014620004f1929190620010c0565b506040518061028001604052806040518060400160405280600a81526020017f70737963686f6c6f67790000000000000000000000000000000000000000000081525081526020016040518060400160405280600781526020017f686973746f72790000000000000000000000000000000000000000000000000081525081526020016040518060400160405280600681526020017f696e636f6d65000000000000000000000000000000000000000000000000000081525081526020016040518060400160405280600681526020017f647269766572000000000000000000000000000000000000000000000000000081525081526020016040518060400160405280600c81526020017f636f6e747269627574696f6e000000000000000000000000000000000000000081525081526020016040518060400160405280600c81526020017f646973747269627574696f6e000000000000000000000000000000000000000081525081526020016040518060400160405280600681526020017f696e6a757279000000000000000000000000000000000000000000000000000081525081526020016040518060400160405280600581526020017f70697a7a6100000000000000000000000000000000000000000000000000000081525081526020016040518060400160405280600781526020017f737572676572790000000000000000000000000000000000000000000000000081525081526020016040518060400160405280600781526020017f6d6573736167650000000000000000000000000000000000000000000000000081525081526020016040518060400160405280600481526020017f6b696e670000000000000000000000000000000000000000000000000000000081525081526020016040518060400160405280600581526020017f7363656e6500000000000000000000000000000000000000000000000000000081525081526020016040518060400160405280600781526020017f74656e73696f6e0000000000000000000000000000000000000000000000000081525081526020016040518060400160405280600781526020017f70656e616c74790000000000000000000000000000000000000000000000000081525081526020016040518060400160405280600a81526020017f636f6e636c7573696f6e0000000000000000000000000000000000000000000081525081526020016040518060400160405280600581526020017f686f74656c00000000000000000000000000000000000000000000000000000081525081526020016040518060400160405280600481526020017f726f61640000000000000000000000000000000000000000000000000000000081525081526020016040518060400160405280600681526020017f706f7461746f000000000000000000000000000000000000000000000000000081525081526020016040518060400160405280600681526020017f686569676874000000000000000000000000000000000000000000000000000081525081526020016040518060400160405280600981526020017f706f6c6c7574696f6e0000000000000000000000000000000000000000000000815250815250600a906014620009aa929190620010c0565b506040518061028001604052806040518060400160405280600681526020017f706572736f6e000000000000000000000000000000000000000000000000000081525081526020016040518060400160405280600981526020017f696e666c6174696f6e000000000000000000000000000000000000000000000081525081526020016040518060400160405280600381526020017f746561000000000000000000000000000000000000000000000000000000000081525081526020016040518060400160405280600781526020017f73747564656e740000000000000000000000000000000000000000000000000081525081526020016040518060400160405280600a81526020017f636f6d70617269736f6e0000000000000000000000000000000000000000000081525081526020016040518060400160405280600b81526020017f706572737065637469766500000000000000000000000000000000000000000081525081526020016040518060400160405280600a81526020017f696e766573746d656e740000000000000000000000000000000000000000000081525081526020016040518060400160405280600881526020017f686f73706974616c00000000000000000000000000000000000000000000000081525081526020016040518060400160405280600481526020017f726f61640000000000000000000000000000000000000000000000000000000081525081526020016040518060400160405280600681526020017f746f6e677565000000000000000000000000000000000000000000000000000081525081526020016040518060400160405280600681526020017f696e73656374000000000000000000000000000000000000000000000000000081525081526020016040518060400160405280600881526020017f7072696f7269747900000000000000000000000000000000000000000000000081525081526020016040518060400160405280600481526020017f61726d790000000000000000000000000000000000000000000000000000000081525081526020016040518060400160405280600581526020017f646570746800000000000000000000000000000000000000000000000000000081525081526020016040518060400160405280600a81526020017f696d7072657373696f6e0000000000000000000000000000000000000000000081525081526020016040518060400160405280600681526020017f706f7461746f000000000000000000000000000000000000000000000000000081525081526020016040518060400160405280600681526020017f726563697065000000000000000000000000000000000000000000000000000081525081526020016040518060400160405280600981526020017f696e737572616e6365000000000000000000000000000000000000000000000081525081526020016040518060400160405280600681526020017f636875726368000000000000000000000000000000000000000000000000000081525081526020016040518060400160405280600a81526020017f7068696c6f736f70687900000000000000000000000000000000000000000000815250815250600b90601462000e63929190620010c0565b5034801562000e7157600080fd5b506040518060400160405280600981526020017f4d79457069634e465400000000000000000000000000000000000000000000008152506040518060400160405280600581526020017f4d594e4654000000000000000000000000000000000000000000000000000000815250816000908051906020019062000ef69291906200102f565b50806001908051906020019062000f0f9291906200102f565b50505062000f5d6040518060400160405280601781526020017f54686973206973206d79204e465420636f6e747261637400000000000000000081525062000f6360201b6200111c1760201c565b620012e1565b620010038160405160240162000f7a9190620011f5565b6040516020818303038152906040527f41304fac000000000000000000000000000000000000000000000000000000007bffffffffffffffffffffffffffffffffffffffffffffffffffffffff19166020820180517bffffffffffffffffffffffffffffffffffffffffffffffffffffffff83818316178352505050506200100660201b60201c565b50565b60008151905060006a636f6e736f6c652e6c6f679050602083016000808483855afa5050505050565b8280546200103d906200126b565b90600052602060002090601f016020900481019282620010615760008555620010ad565b82601f106200107c57805160ff1916838001178555620010ad565b82800160010185558215620010ad579182015b82811115620010ac5782518255916020019190600101906200108f565b5b509050620010bc919062001127565b5090565b82805482825590600052602060002090810192821562001114579160200282015b8281111562001113578251829080519060200190620011029291906200102f565b5091602001919060010190620010e1565b5b50905062001123919062001146565b5090565b5b808211156200114257600081600090555060010162001128565b5090565b5b808211156200116a57600081816200116091906200116e565b5060010162001147565b5090565b5080546200117c906200126b565b6000825580601f10620011905750620011b1565b601f016020900490600052602060002090810190620011b0919062001127565b5b50565b6000620011c18262001219565b620011cd818562001224565b9350620011df81856020860162001235565b620011ea81620012d0565b840191505092915050565b60006020820190508181036000830152620012118184620011b4565b905092915050565b600081519050919050565b600082825260208201905092915050565b60005b838110156200125557808201518184015260208101905062001238565b8381111562001265576000848401525b50505050565b600060028204905060018216806200128457607f821691505b602082108114156200129b576200129a620012a1565b5b50919050565b7f4e487b7100000000000000000000000000000000000000000000000000000000600052602260045260246000fd5b6000601f19601f8301169050919050565b61395f80620012f16000396000f3fe608060405234801561001057600080fd5b50600436106100f55760003560e01c80636352211e11610097578063b88d4fde11610066578063b88d4fde14610296578063c87b56dd146102b2578063de9d132f146102e2578063e985e9c5146102ec576100f5565b80636352211e146101fc57806370a082311461022c57806395d89b411461025c578063a22cb4651461027a576100f5565b8063095ea7b3116100d3578063095ea7b31461017857806323b872dd1461019457806342842e0e146101b05780634ebb5e73146101cc576100f5565b806301ffc9a7146100fa57806306fdde031461012a578063081812fc14610148575b600080fd5b610114600480360381019061010f919061258e565b61031c565b6040516101219190613142565b60405180910390f35b6101326103fe565b60405161013f919061315d565b60405180910390f35b610162600480360381019061015d91906125e0565b610490565b60405161016f91906130b2565b60405180910390f35b610192600480360381019061018d91906124fe565b610515565b005b6101ae60048036038101906101a991906123f8565b61062d565b005b6101ca60048036038101906101c591906123f8565b61068d565b005b6101e660048036038101906101e1919061253a565b6106ad565b6040516101f3919061315d565b60405180910390f35b610216600480360381019061021191906125e0565b610740565b60405161022391906130b2565b60405180910390f35b61024660048036038101906102419190612393565b6107f2565b60405161025391906133f4565b60405180910390f35b6102646108aa565b604051610271919061315d565b60405180910390f35b610294600480360381019061028f91906124c2565b61093c565b005b6102b060048036038101906102ab9190612447565b610abd565b005b6102cc60048036038101906102c791906125e0565b610b1f565b6040516102d9919061315d565b60405180910390f35b6102ea610c71565b005b610306600480360381019061030191906123bc565b611088565b6040516103139190613142565b60405180910390f35b60007f80ac58cd000000000000000000000000000000000000000000000000000000007bffffffffffffffffffffffffffffffffffffffffffffffffffffffff1916827bffffffffffffffffffffffffffffffffffffffffffffffffffffffff191614806103e757507f5b5e139f000000000000000000000000000000000000000000000000000000007bffffffffffffffffffffffffffffffffffffffffffffffffffffffff1916827bffffffffffffffffffffffffffffffffffffffffffffffffffffffff1916145b806103f757506103f6826111b5565b5b9050919050565b60606000805461040d906136ef565b80601f0160208091040260200160405190810160405280929190818152602001828054610439906136ef565b80156104865780601f1061045b57610100808354040283529160200191610486565b820191906000526020600020905b81548152906001019060200180831161046957829003601f168201915b5050505050905090565b600061049b8261121f565b6104da576040517f08c379a00000000000000000000000000000000000000000000000000000000081526004016104d190613354565b60405180910390fd5b6004600083815260200190815260200160002060009054906101000a900473ffffffffffffffffffffffffffffffffffffffff169050919050565b600061052082610740565b90508073ffffffffffffffffffffffffffffffffffffffff168373ffffffffffffffffffffffffffffffffffffffff161415610591576040517f08c379a0000000000000000000000000000000000000000000000000000000008152600401610588906133b4565b60405180910390fd5b8073ffffffffffffffffffffffffffffffffffffffff166105b061128b565b73ffffffffffffffffffffffffffffffffffffffff1614806105df57506105de816105d961128b565b611088565b5b61061e576040517f08c379a000000000000000000000000000000000000000000000000000000000815260040161061590613294565b60405180910390fd5b6106288383611293565b505050565b61063e61063861128b565b8261134c565b61067d576040517f08c379a0000000000000000000000000000000000000000000000000000000008152600401610674906133d4565b60405180910390fd5b61068883838361142a565b505050565b6106a883838360405180602001604052806000815250610abd565b505050565b606060006106e16106bd84611686565b6040516020016106cd9190613090565b604051602081830303815290604052611833565b9050600980549050816106f4919061376a565b905083818151811061072f577f4e487b7100000000000000000000000000000000000000000000000000000000600052603260045260246000fd5b602002602001015191505092915050565b6000806002600084815260200190815260200160002060009054906101000a900473ffffffffffffffffffffffffffffffffffffffff169050600073ffffffffffffffffffffffffffffffffffffffff168173ffffffffffffffffffffffffffffffffffffffff1614156107e9576040517f08c379a00000000000000000000000000000000000000000000000000000000081526004016107e0906132d4565b60405180910390fd5b80915050919050565b60008073ffffffffffffffffffffffffffffffffffffffff168273ffffffffffffffffffffffffffffffffffffffff161415610863576040517f08c379a000000000000000000000000000000000000000000000000000000000815260040161085a906132b4565b60405180910390fd5b600360008373ffffffffffffffffffffffffffffffffffffffff1673ffffffffffffffffffffffffffffffffffffffff168152602001908152602001600020549050919050565b6060600180546108b9906136ef565b80601f01602080910402602001604051908101604052809291908181526020018280546108e5906136ef565b80156109325780601f1061090757610100808354040283529160200191610932565b820191906000526020600020905b81548152906001019060200180831161091557829003601f168201915b5050505050905090565b61094461128b565b73ffffffffffffffffffffffffffffffffffffffff168273ffffffffffffffffffffffffffffffffffffffff1614156109b2576040517f08c379a00000000000000000000000000000000000000000000000000000000081526004016109a990613254565b60405180910390fd5b80600560006109bf61128b565b73ffffffffffffffffffffffffffffffffffffffff1673ffffffffffffffffffffffffffffffffffffffff16815260200190815260200160002060008473ffffffffffffffffffffffffffffffffffffffff1673ffffffffffffffffffffffffffffffffffffffff16815260200190815260200160002060006101000a81548160ff0219169083151502179055508173ffffffffffffffffffffffffffffffffffffffff16610a6c61128b565b73ffffffffffffffffffffffffffffffffffffffff167f17307eab39ab6107e8899845ad3d59bd9653f200f220920489ca2b5937696c3183604051610ab19190613142565b60405180910390a35050565b610ace610ac861128b565b8361134c565b610b0d576040517f08c379a0000000000000000000000000000000000000000000000000000000008152600401610b04906133d4565b60405180910390fd5b610b1984848484611866565b50505050565b6060610b2a8261121f565b610b69576040517f08c379a0000000000000000000000000000000000000000000000000000000008152600401610b6090613334565b60405180910390fd5b6000600660008481526020019081526020016000208054610b89906136ef565b80601f0160208091040260200160405190810160405280929190818152602001828054610bb5906136ef565b8015610c025780601f10610bd757610100808354040283529160200191610c02565b820191906000526020600020905b815481529060010190602001808311610be557829003601f168201915b505050505090506000610c136118c2565b9050600081511415610c29578192505050610c6c565b600082511115610c5e578082604051602001610c46929190612f8f565b60405160208183030381529060405292505050610c6c565b610c67846118d9565b925050505b919050565b6000610c7d6007611980565b90506000610d5c6009805480602002602001604051908101604052809291908181526020016000905b82821015610d52578382906000526020600020018054610cc5906136ef565b80601f0160208091040260200160405190810160405280929190818152602001828054610cf1906136ef565b8015610d3e5780601f10610d1357610100808354040283529160200191610d3e565b820191906000526020600020905b815481529060010190602001808311610d2157829003601f168201915b505050505081526020019060010190610ca6565b50505050836106ad565b90506000610e3b600a805480602002602001604051908101604052809291908181526020016000905b82821015610e31578382906000526020600020018054610da4906136ef565b80601f0160208091040260200160405190810160405280929190818152602001828054610dd0906136ef565b8015610e1d5780601f10610df257610100808354040283529160200191610e1d565b820191906000526020600020905b815481529060010190602001808311610e0057829003601f168201915b505050505081526020019060010190610d85565b50505050846106ad565b90506000610f1a600b805480602002602001604051908101604052809291908181526020016000905b82821015610f10578382906000526020600020018054610e83906136ef565b80601f0160208091040260200160405190810160405280929190818152602001828054610eaf906136ef565b8015610efc5780601f10610ed157610100808354040283529160200191610efc565b820191906000526020600020905b815481529060010190602001808311610edf57829003601f168201915b505050505081526020019060010190610e64565b50505050856106ad565b90506000838383604051602001610f3393929190612fb3565b60405160208183030381529060405290506000600882604051602001610f5a929190612ffa565b6040516020818303038152906040529050610faa6040518060400160405280600781526020017f776f7264733a20000000000000000000000000000000000000000000000000008152508261198e565b610fb43387611a2a565b6000610fe883610fc384611a48565b604051602001610fd4929190613029565b604051602081830303815290604052611a48565b9050600081604051602001610ffd919061306e565b60405160208183030381529060405290506110188882611c06565b61103b6040518060600160405280602581526020016138c5602591398933611c7a565b6110456007611d19565b7febb98688741ffa4c7589bf325de30cf7becb63de567842e1ccdb6cb949fdc82c3389604051611076929190613119565b60405180910390a15050505050505050565b6000600560008473ffffffffffffffffffffffffffffffffffffffff1673ffffffffffffffffffffffffffffffffffffffff16815260200190815260200160002060008373ffffffffffffffffffffffffffffffffffffffff1673ffffffffffffffffffffffffffffffffffffffff16815260200190815260200160002060009054906101000a900460ff16905092915050565b6111b281604051602401611130919061315d565b6040516020818303038152906040527f41304fac000000000000000000000000000000000000000000000000000000007bffffffffffffffffffffffffffffffffffffffffffffffffffffffff19166020820180517bffffffffffffffffffffffffffffffffffffffffffffffffffffffff8381831617835250505050611d2f565b50565b60007f01ffc9a7000000000000000000000000000000000000000000000000000000007bffffffffffffffffffffffffffffffffffffffffffffffffffffffff1916827bffffffffffffffffffffffffffffffffffffffffffffffffffffffff1916149050919050565b60008073ffffffffffffffffffffffffffffffffffffffff166002600084815260200190815260200160002060009054906101000a900473ffffffffffffffffffffffffffffffffffffffff1673ffffffffffffffffffffffffffffffffffffffff1614159050919050565b600033905090565b816004600083815260200190815260200160002060006101000a81548173ffffffffffffffffffffffffffffffffffffffff021916908373ffffffffffffffffffffffffffffffffffffffff160217905550808273ffffffffffffffffffffffffffffffffffffffff1661130683610740565b73ffffffffffffffffffffffffffffffffffffffff167f8c5be1e5ebec7d5bd14f71427d1e84f3dd0314c0f7b2291e5b200ac8c7c3b92560405160405180910390a45050565b60006113578261121f565b611396576040517f08c379a000000000000000000000000000000000000000000000000000000000815260040161138d90613274565b60405180910390fd5b60006113a183610740565b90508073ffffffffffffffffffffffffffffffffffffffff168473ffffffffffffffffffffffffffffffffffffffff16148061141057508373ffffffffffffffffffffffffffffffffffffffff166113f884610490565b73ffffffffffffffffffffffffffffffffffffffff16145b8061142157506114208185611088565b5b91505092915050565b8273ffffffffffffffffffffffffffffffffffffffff1661144a82610740565b73ffffffffffffffffffffffffffffffffffffffff16146114a0576040517f08c379a000000000000000000000000000000000000000000000000000000000815260040161149790613374565b60405180910390fd5b600073ffffffffffffffffffffffffffffffffffffffff168273ffffffffffffffffffffffffffffffffffffffff161415611510576040517f08c379a000000000000000000000000000000000000000000000000000000000815260040161150790613234565b60405180910390fd5b61151b838383611d58565b611526600082611293565b6001600360008573ffffffffffffffffffffffffffffffffffffffff1673ffffffffffffffffffffffffffffffffffffffff16815260200190815260200160002060008282546115769190613605565b925050819055506001600360008473ffffffffffffffffffffffffffffffffffffffff1673ffffffffffffffffffffffffffffffffffffffff16815260200190815260200160002060008282546115cd9190613524565b92505081905550816002600083815260200190815260200160002060006101000a81548173ffffffffffffffffffffffffffffffffffffffff021916908373ffffffffffffffffffffffffffffffffffffffff160217905550808273ffffffffffffffffffffffffffffffffffffffff168473ffffffffffffffffffffffffffffffffffffffff167fddf252ad1be2c89b69c2b068fc378daa952ba7f163c4a11628f55a4df523b3ef60405160405180910390a4505050565b606060008214156116ce576040518060400160405280600181526020017f3000000000000000000000000000000000000000000000000000000000000000815250905061182e565b600082905060005b600082146117005780806116e990613721565b915050600a826116f9919061357a565b91506116d6565b60008167ffffffffffffffff811115611742577f4e487b7100000000000000000000000000000000000000000000000000000000600052604160045260246000fd5b6040519080825280601f01601f1916602001820160405280156117745781602001600182028036833780820191505090505b5090505b600085146118275760018261178d9190613605565b9150600a8561179c919061376a565b60306117a89190613524565b60f81b8183815181106117e4577f4e487b7100000000000000000000000000000000000000000000000000000000600052603260045260246000fd5b60200101907effffffffffffffffffffffffffffffffffffffffffffffffffffffffffffff1916908160001a905350600a85611820919061357a565b9450611778565b8093505050505b919050565b6000816040516020016118469190612f78565b6040516020818303038152906040528051906020012060001c9050919050565b61187184848461142a565b61187d84848484611d5d565b6118bc576040517f08c379a00000000000000000000000000000000000000000000000000000000081526004016118b3906131f4565b60405180910390fd5b50505050565b606060405180602001604052806000815250905090565b60606118e48261121f565b611923576040517f08c379a000000000000000000000000000000000000000000000000000000000815260040161191a90613394565b60405180910390fd5b600061192d6118c2565b9050600081511161194d5760405180602001604052806000815250611978565b8061195784611686565b604051602001611968929190612f8f565b6040516020818303038152906040525b915050919050565b600081600001549050919050565b611a2682826040516024016119a492919061317f565b6040516020818303038152906040527f4b5c4277000000000000000000000000000000000000000000000000000000007bffffffffffffffffffffffffffffffffffffffffffffffffffffffff19166020820180517bffffffffffffffffffffffffffffffffffffffffffffffffffffffff8381831617835250505050611d2f565b5050565b611a44828260405180602001604052806000815250611ef4565b5050565b60606000825190506000811415611a715760405180602001604052806000815250915050611c01565b60006003600283611a829190613524565b611a8c919061357a565b6004611a9891906135ab565b90506000602082611aa99190613524565b67ffffffffffffffff811115611ae8577f4e487b7100000000000000000000000000000000000000000000000000000000600052604160045260246000fd5b6040519080825280601f01601f191660200182016040528015611b1a5781602001600182028036833780820191505090505b50905060006040518060600160405280604081526020016138ea604091399050600181016020830160005b86811015611bbe5760038101905062ffffff818a015116603f8160121c168401518060081b905060ff603f83600c1c1686015116810190508060081b905060ff603f8360061c1686015116810190508060081b905060ff603f831686015116810190508060e01b90508084526004840193505050611b45565b506003860660018114611bd85760028114611be857611bf3565b613d3d60f01b6002830352611bf3565b603d60f81b60018303525b508484525050819450505050505b919050565b611c0f8261121f565b611c4e576040517f08c379a0000000000000000000000000000000000000000000000000000000008152600401611c45906132f4565b60405180910390fd5b80600660008481526020019081526020016000209080519060200190611c75929190612130565b505050565b611d14838383604051602401611c92939291906131b6565b6040516020818303038152906040527fe3849f79000000000000000000000000000000000000000000000000000000007bffffffffffffffffffffffffffffffffffffffffffffffffffffffff19166020820180517bffffffffffffffffffffffffffffffffffffffffffffffffffffffff8381831617835250505050611d2f565b505050565b6001816000016000828254019250508190555050565b60008151905060006a636f6e736f6c652e6c6f679050602083016000808483855afa5050505050565b505050565b6000611d7e8473ffffffffffffffffffffffffffffffffffffffff16611f4f565b15611ee7578373ffffffffffffffffffffffffffffffffffffffff1663150b7a02611da761128b565b8786866040518563ffffffff1660e01b8152600401611dc994939291906130cd565b602060405180830381600087803b158015611de357600080fd5b505af1925050508015611e1457506040513d601f19601f82011682018060405250810190611e1191906125b7565b60015b611e97573d8060008114611e44576040519150601f19603f3d011682016040523d82523d6000602084013e611e49565b606091505b50600081511415611e8f576040517f08c379a0000000000000000000000000000000000000000000000000000000008152600401611e86906131f4565b60405180910390fd5b805181602001fd5b63150b7a0260e01b7bffffffffffffffffffffffffffffffffffffffffffffffffffffffff1916817bffffffffffffffffffffffffffffffffffffffffffffffffffffffff191614915050611eec565b600190505b949350505050565b611efe8383611f62565b611f0b6000848484611d5d565b611f4a576040517f08c379a0000000000000000000000000000000000000000000000000000000008152600401611f41906131f4565b60405180910390fd5b505050565b600080823b905060008111915050919050565b600073ffffffffffffffffffffffffffffffffffffffff168273ffffffffffffffffffffffffffffffffffffffff161415611fd2576040517f08c379a0000000000000000000000000000000000000000000000000000000008152600401611fc990613314565b60405180910390fd5b611fdb8161121f565b1561201b576040517f08c379a000000000000000000000000000000000000000000000000000000000815260040161201290613214565b60405180910390fd5b61202760008383611d58565b6001600360008473ffffffffffffffffffffffffffffffffffffffff1673ffffffffffffffffffffffffffffffffffffffff16815260200190815260200160002060008282546120779190613524565b92505081905550816002600083815260200190815260200160002060006101000a81548173ffffffffffffffffffffffffffffffffffffffff021916908373ffffffffffffffffffffffffffffffffffffffff160217905550808273ffffffffffffffffffffffffffffffffffffffff16600073ffffffffffffffffffffffffffffffffffffffff167fddf252ad1be2c89b69c2b068fc378daa952ba7f163c4a11628f55a4df523b3ef60405160405180910390a45050565b82805461213c906136ef565b90600052602060002090601f01602090048101928261215e57600085556121a5565b82601f1061217757805160ff19168380011785556121a5565b828001600101855582156121a5579182015b828111156121a4578251825591602001919060010190612189565b5b5090506121b291906121b6565b5090565b5b808211156121cf5760008160009055506001016121b7565b5090565b60006121e66121e184613440565b61340f565b9050808382526020820190508260005b85811015612226578135850161220c8882612354565b8452602084019350602083019250506001810190506121f6565b5050509392505050565b600061224361223e8461346c565b61340f565b90508281526020810184848401111561225b57600080fd5b6122668482856136ad565b509392505050565b600061228161227c8461349c565b61340f565b90508281526020810184848401111561229957600080fd5b6122a48482856136ad565b509392505050565b6000813590506122bb81613868565b92915050565b600082601f8301126122d257600080fd5b81356122e28482602086016121d3565b91505092915050565b6000813590506122fa8161387f565b92915050565b60008135905061230f81613896565b92915050565b60008151905061232481613896565b92915050565b600082601f83011261233b57600080fd5b813561234b848260208601612230565b91505092915050565b600082601f83011261236557600080fd5b813561237584826020860161226e565b91505092915050565b60008135905061238d816138ad565b92915050565b6000602082840312156123a557600080fd5b60006123b3848285016122ac565b91505092915050565b600080604083850312156123cf57600080fd5b60006123dd858286016122ac565b92505060206123ee858286016122ac565b9150509250929050565b60008060006060848603121561240d57600080fd5b600061241b868287016122ac565b935050602061242c868287016122ac565b925050604061243d8682870161237e565b9150509250925092565b6000806000806080858703121561245d57600080fd5b600061246b878288016122ac565b945050602061247c878288016122ac565b935050604061248d8782880161237e565b925050606085013567ffffffffffffffff8111156124aa57600080fd5b6124b68782880161232a565b91505092959194509250565b600080604083850312156124d557600080fd5b60006124e3858286016122ac565b92505060206124f4858286016122eb565b9150509250929050565b6000806040838503121561251157600080fd5b600061251f858286016122ac565b92505060206125308582860161237e565b9150509250929050565b6000806040838503121561254d57600080fd5b600083013567ffffffffffffffff81111561256757600080fd5b612573858286016122c1565b92505060206125848582860161237e565b9150509250929050565b6000602082840312156125a057600080fd5b60006125ae84828501612300565b91505092915050565b6000602082840312156125c957600080fd5b60006125d784828501612315565b91505092915050565b6000602082840312156125f257600080fd5b60006126008482850161237e565b91505092915050565b61261281613639565b82525050565b6126218161364b565b82525050565b6000612632826134e1565b61263c81856134f7565b935061264c8185602086016136bc565b61265581613857565b840191505092915050565b600061266b826134ec565b6126758185613508565b93506126858185602086016136bc565b61268e81613857565b840191505092915050565b60006126a4826134ec565b6126ae8185613519565b93506126be8185602086016136bc565b80840191505092915050565b600081546126d7816136ef565b6126e18186613519565b945060018216600081146126fc576001811461270d57612740565b60ff19831686528186019350612740565b612716856134cc565b60005b8381101561273857815481890152600182019150602081019050612719565b838801955050505b50505092915050565b6000612756603283613508565b91507f4552433732313a207472616e7366657220746f206e6f6e20455243373231526560008301527f63656976657220696d706c656d656e74657200000000000000000000000000006020830152604082019050919050565b60006127bc601c83613508565b91507f4552433732313a20746f6b656e20616c7265616479206d696e746564000000006000830152602082019050919050565b60006127fc602483613508565b91507f4552433732313a207472616e7366657220746f20746865207a65726f2061646460008301527f72657373000000000000000000000000000000000000000000000000000000006020830152604082019050919050565b6000612862601983613508565b91507f4552433732313a20617070726f766520746f2063616c6c6572000000000000006000830152602082019050919050565b60006128a2606383613519565b91507f222c20226465736372697074696f6e223a20224120686967686c79206163636c60008301527f61696d656420636f6c6c656374696f6e206f6620737175617265732e222c202260208301527f696d616765223a2022646174613a696d6167652f7376672b786d6c3b6261736560408301527f36342c00000000000000000000000000000000000000000000000000000000006060830152606382019050919050565b6000612954602c83613508565b91507f4552433732313a206f70657261746f7220717565727920666f72206e6f6e657860008301527f697374656e7420746f6b656e00000000000000000000000000000000000000006020830152604082019050919050565b60006129ba600d83613519565b91507f3c2f746578743e3c2f7376673e000000000000000000000000000000000000006000830152600d82019050919050565b60006129fa600183613519565b91507f20000000000000000000000000000000000000000000000000000000000000006000830152600182019050919050565b6000612a3a603883613508565b91507f4552433732313a20617070726f76652063616c6c6572206973206e6f74206f7760008301527f6e6572206e6f7220617070726f76656420666f7220616c6c00000000000000006020830152604082019050919050565b6000612aa0602a83613508565b91507f4552433732313a2062616c616e636520717565727920666f7220746865207a6560008301527f726f2061646472657373000000000000000000000000000000000000000000006020830152604082019050919050565b6000612b06602983613508565b91507f4552433732313a206f776e657220717565727920666f72206e6f6e657869737460008301527f656e7420746f6b656e00000000000000000000000000000000000000000000006020830152604082019050919050565b6000612b6c602e83613508565b91507f45524337323155524953746f726167653a2055524920736574206f66206e6f6e60008301527f6578697374656e7420746f6b656e0000000000000000000000000000000000006020830152604082019050919050565b6000612bd2600283613519565b91507f227d0000000000000000000000000000000000000000000000000000000000006000830152600282019050919050565b6000612c12602083613508565b91507f4552433732313a206d696e7420746f20746865207a65726f20616464726573736000830152602082019050919050565b6000612c52603183613508565b91507f45524337323155524953746f726167653a2055524920717565727920666f722060008301527f6e6f6e6578697374656e7420746f6b656e0000000000000000000000000000006020830152604082019050919050565b6000612cb8602c83613508565b91507f4552433732313a20617070726f76656420717565727920666f72206e6f6e657860008301527f697374656e7420746f6b656e00000000000000000000000000000000000000006020830152604082019050919050565b6000612d1e602983613508565b91507f4552433732313a207472616e73666572206f6620746f6b656e2074686174206960008301527f73206e6f74206f776e00000000000000000000000000000000000000000000006020830152604082019050919050565b6000612d84602f83613508565b91507f4552433732314d657461646174613a2055524920717565727920666f72206e6f60008301527f6e6578697374656e7420746f6b656e00000000000000000000000000000000006020830152604082019050919050565b6000612dea600a83613519565b91507f7b226e616d65223a2022000000000000000000000000000000000000000000006000830152600a82019050919050565b6000612e2a602183613508565b91507f4552433732313a20617070726f76616c20746f2063757272656e74206f776e6560008301527f72000000000000000000000000000000000000000000000000000000000000006020830152604082019050919050565b6000612e90601d83613519565b91507f646174613a6170706c69636174696f6e2f6a736f6e3b6261736536342c0000006000830152601d82019050919050565b6000612ed0601083613519565b91507f72616e646f6d207365656420776f7264000000000000000000000000000000006000830152601082019050919050565b6000612f10603183613508565b91507f4552433732313a207472616e736665722063616c6c6572206973206e6f74206f60008301527f776e6572206e6f7220617070726f7665640000000000000000000000000000006020830152604082019050919050565b612f72816136a3565b82525050565b6000612f848284612699565b915081905092915050565b6000612f9b8285612699565b9150612fa78284612699565b91508190509392505050565b6000612fbf8286612699565b9150612fca826129ed565b9150612fd68285612699565b9150612fe1826129ed565b9150612fed8284612699565b9150819050949350505050565b600061300682856126ca565b91506130128284612699565b915061301d826129ad565b91508190509392505050565b600061303482612ddd565b91506130408285612699565b915061304b82612895565b91506130578284612699565b915061306282612bc5565b91508190509392505050565b600061307982612e83565b91506130858284612699565b915081905092915050565b600061309b82612ec3565b91506130a78284612699565b915081905092915050565b60006020820190506130c76000830184612609565b92915050565b60006080820190506130e26000830187612609565b6130ef6020830186612609565b6130fc6040830185612f69565b818103606083015261310e8184612627565b905095945050505050565b600060408201905061312e6000830185612609565b61313b6020830184612f69565b9392505050565b60006020820190506131576000830184612618565b92915050565b600060208201905081810360008301526131778184612660565b905092915050565b600060408201905081810360008301526131998185612660565b905081810360208301526131ad8184612660565b90509392505050565b600060608201905081810360008301526131d08186612660565b90506131df6020830185612f69565b6131ec6040830184612609565b949350505050565b6000602082019050818103600083015261320d81612749565b9050919050565b6000602082019050818103600083015261322d816127af565b9050919050565b6000602082019050818103600083015261324d816127ef565b9050919050565b6000602082019050818103600083015261326d81612855565b9050919050565b6000602082019050818103600083015261328d81612947565b9050919050565b600060208201905081810360008301526132ad81612a2d565b9050919050565b600060208201905081810360008301526132cd81612a93565b9050919050565b600060208201905081810360008301526132ed81612af9565b9050919050565b6000602082019050818103600083015261330d81612b5f565b9050919050565b6000602082019050818103600083015261332d81612c05565b9050919050565b6000602082019050818103600083015261334d81612c45565b9050919050565b6000602082019050818103600083015261336d81612cab565b9050919050565b6000602082019050818103600083015261338d81612d11565b9050919050565b600060208201905081810360008301526133ad81612d77565b9050919050565b600060208201905081810360008301526133cd81612e1d565b9050919050565b600060208201905081810360008301526133ed81612f03565b9050919050565b60006020820190506134096000830184612f69565b92915050565b6000604051905081810181811067ffffffffffffffff8211171561343657613435613828565b5b8060405250919050565b600067ffffffffffffffff82111561345b5761345a613828565b5b602082029050602081019050919050565b600067ffffffffffffffff82111561348757613486613828565b5b601f19601f8301169050602081019050919050565b600067ffffffffffffffff8211156134b7576134b6613828565b5b601f19601f8301169050602081019050919050565b60008190508160005260206000209050919050565b600081519050919050565b600081519050919050565b600082825260208201905092915050565b600082825260208201905092915050565b600081905092915050565b600061352f826136a3565b915061353a836136a3565b9250827fffffffffffffffffffffffffffffffffffffffffffffffffffffffffffffffff0382111561356f5761356e61379b565b5b828201905092915050565b6000613585826136a3565b9150613590836136a3565b9250826135a05761359f6137ca565b5b828204905092915050565b60006135b6826136a3565b91506135c1836136a3565b9250817fffffffffffffffffffffffffffffffffffffffffffffffffffffffffffffffff04831182151516156135fa576135f961379b565b5b828202905092915050565b6000613610826136a3565b915061361b836136a3565b92508282101561362e5761362d61379b565b5b828203905092915050565b600061364482613683565b9050919050565b60008115159050919050565b60007fffffffff0000000000000000000000000000000000000000000000000000000082169050919050565b600073ffffffffffffffffffffffffffffffffffffffff82169050919050565b6000819050919050565b82818337600083830152505050565b60005b838110156136da5780820151818401526020810190506136bf565b838111156136e9576000848401525b50505050565b6000600282049050600182168061370757607f821691505b6020821081141561371b5761371a6137f9565b5b50919050565b600061372c826136a3565b91507fffffffffffffffffffffffffffffffffffffffffffffffffffffffffffffffff82141561375f5761375e61379b565b5b600182019050919050565b6000613775826136a3565b9150613780836136a3565b9250826137905761378f6137ca565b5b828206905092915050565b7f4e487b7100000000000000000000000000000000000000000000000000000000600052601160045260246000fd5b7f4e487b7100000000000000000000000000000000000000000000000000000000600052601260045260246000fd5b7f4e487b7100000000000000000000000000000000000000000000000000000000600052602260045260246000fd5b7f4e487b7100000000000000000000000000000000000000000000000000000000600052604160045260246000fd5b6000601f19601f8301169050919050565b61387181613639565b811461387c57600080fd5b50565b6138888161364b565b811461389357600080fd5b50565b61389f81613657565b81146138aa57600080fd5b50565b6138b6816136a3565b81146138c157600080fd5b5056fe416e204e465420772f20494420257320686173206265656e206d696e74656420746f2025734142434445464748494a4b4c4d4e4f505152535455565758595a6162636465666768696a6b6c6d6e6f707172737475767778797a303132333435363738392b2fa264697066735822122089e028062ec129418e118dd7ea507cea91626c45efbc82632901a5f1016092cb64736f6c634300080000333c73766720786d6c6e733d27687474703a2f2f7777772e77332e6f72672f323030302f73766727207072657365727665417370656374526174696f3d27784d696e594d696e206d656574272076696577426f783d273020302033353020333530273e3c7374796c653e2e62617365207b2066696c6c3a2077686974653b20666f6e742d66616d696c793a2073616e732d73657269663b20666f6e742d73697a653a20323470783b207d3c2f7374796c653e3c726563742077696474683d273130302527206865696768743d2731303025272066696c6c3d27626c61636b27202f3e3c7465787420783d273530252720793d273530252720636c6173733d27626173652720646f6d696e616e742d626173656c696e653d276d6964646c652720746578742d616e63686f723d276d6964646c65273e",
  "linkReferences": {},
  "deployedLinkReferences": {}
}